S02300005350492D41546D65676120746F2041546D656761285265636976292E737265631D
S11300000C942A000C9447000C9447000C9447006D
S11300100C9447000C9447000C9447000C94470040
S11300200C9447000C9447000C9447000C94470030
S11300300C9447000C9447000C9447000C94470020
S11300400C9447000C9447000C9447000C94470010
S11300500C94470011241FBECFE5D4E0DEBFCDBF12
S113006010E0A0E6B0E0E8EFF2E002C005900D92E7
S1130070A836B107D9F720E0A8E6B0E001C01D9288
S1130080A836B207E1F70E9436010C947A010C9469
S113009000001BBA1ABA18BA80E487BB15BA9FEFDE
S11300A094BB12BA97EC91BB13BE12BE1CBE1FBC0C
S11300B01EBC1DBC1CBC17BC16BC1BBC1ABC19BC8A
S11300C018BC12BC15BC14BC13BC15BE14BE19BE9E
S11300D01AB890E898B910BE16B88DB91EB816BEF5
S11300E0089589EF90E00197F1F700C0000090981F
S11300F080E382BB919AE1EEF4E03197F1F700C01E
S113010000009198E9EFF0E03197F1F700C00000AA
S1130110909882BB919AE1EEF4E03197F1F700C038
S113012000009198E9EFF0E03197F1F700C000008A
S1130130909882BB919A81EE94E00197F1F700C008
S113014000009198E9EFF0E03197F1F700C000006A
S1130150909880E282BB919A81EE94E00197F1F746
S113016000C000009198089592B39F7092BB92B31F
S1130170282F207F922B92BB9098919AE1EEF4E085
S11301803197F1F700C00000919892B39F7092BB31
S113019092B38295807F892B82BB9098919A81EE4D
S11301A094E00197F1F700C00000919808950E942F
S11301B0710089EF90E00197F1F700C0000088E238
S11301C00E94B40081E00E94B40086E00E94B40062
S11301D08EE00E94B40080E80E94B400089592B3B7
S11301E09F7092BB92B3282F207F922B92BB909A40
S11301F0919AE1EEF4E03197F1F700C00000919894
S113020092B39F7092BB92B38295807F892B82BBFD
S1130210909A919A81EE94E00197F1F700C0000062
S113022091980895823071F018F4813031F0089576
S1130230833069F0843081F008958FE7860F0E943F
S1130240B40008958FEB860F0E94B400089583E9EB
S1130250860F0E94B400089583ED860F0E94B400B7
S113026008958FB9779BFECF8FB10895CF93DF9315
S1130270CDB7DEB728970FB6F894DEBF0FBECDBF5B
S11302800E9449000E94D70088E0E0E6F0E0DE0129
S1130290119601900D928A95E1F78FEF85BBB12CF1
S11302A0E12CCE0101966C010B2D1E2DF6018191DE
S11302B06F010E94310185BB90E0002E02C095952C
S11302C087950A94E2F70F5F1F4F80FD08C0602FE7
S11302D081E00E94120180E30E94EF0007C0602FBA
S11302E081E00E94120181E30E94EF0008301105B1
S10B02F0E9F6D7CFF894FFCF23
S10B02F86162636465666768D6
S9030000FC
