S02800005350492D2041546D656761313620746F2041746D6567613136285472616E73292E73726563FB
S11300000C942A000C943C000C943C000C943C008E
S11300100C943C000C943C000C943C000C943C006C
S11300200C943C000C943C000C943C000C943C005C
S11300300C943C000C943C000C943C000C943C004C
S11300400C943C000C943C000C943C000C943C003C
S11300500C943C0011241FBECFE5D4E0DEBFCDBF1D
S113006020E0A0E6B0E001C01D92A036B207E1F79F
S11300700E942B010C944D010C9400001BBA1ABA77
S113008018BA80EB87BB15BA14BA12BA87EC81BBD5
S113009013BE12BE1CBE1FBC1EBC1DBC1CBC17BCA8
S11300A016BC1BBC1ABC19BC18BC12BC15BC14BCB5
S11300B013BC15BE14BE19BE1AB880E888B910BEA8
S11300C016B880E58DB91EB816BE08958FEC97E07A
S11300D00197F1F700C00000909880E382BB919AE9
S11300E0EFE0F7E23197F1F700C000009198EFECF0
S11300F0F7E03197F1F700C00000909882BB919A25
S1130100EFE0F7E23197F1F700C000009198EFECCF
S1130110F7E03197F1F700C00000909882BB919A04
S11301208FE097E20197F1F700C000009198EFEC9F
S1130130F7E03197F1F700C00000909880E282BBAD
S1130140919A8FE097E20197F1F700C0000091982F
S1130150089592B39F7092BB92B3282F207F922B65
S113016092BB9098919AEFE0F7E23197F1F700C0D3
S11301700000919892B39F7092BB92B38295807F56
S1130180892B82BB9098919A8FE097E20197F1F7BF
S113019000C00000919808950E9466008FEC97E0DB
S11301A00197F1F700C0000088E20E94A90081E0F5
S11301B00E94A90086E00E94A9008EE00E94A90086
S11301C080E80E94A900089592B39F7092BB92B3F5
S11301D0282F207F922B92BB909A919AEFE0F7E21E
S11301E03197F1F700C00000919892B39F7092BBD1
S11301F092B38295807F892B82BB909A919A8FE0EB
S113020097E20197F1F700C00000919808958230B9
S113021071F018F4813031F00895833069F084303E
S113022081F008958FE7860F0E94A90008958FEB4F
S1130230860F0E94A900089583E9860F0E94A900F1
S1130240089583ED860F0E94A90008958FB9779BC6
S1130250FECF8FB108950E943E000E94CC0061E061
S113026081E00E94070111E0C12F83B30E9426019F
S1130270D82F6C2F812F0E9407018D2F0E94E4003C
S11302802FEF89E698E1215080409040E1F700C0CB
S11102900000CF5FC93049F7E7CFF894FFCFE5
S9030000FC
